{
  "_format": "hh-sol-artifact-1",
  "contractName": "Arcades",
  "sourceName": "contracts/Arcades.sol",
  "abi": [
    {
      "inputs": [
        {
          "internalType": "contract ScrapToken",
          "name": "scrapTokenAddress",
          "type": "address"
        }
      ],
      "stateMutability": "nonpayable",
      "type": "constructor"
    },
    {
      "anonymous": false,
      "inputs": [
        {
          "indexed": true,
          "internalType": "address",
          "name": "owner",
          "type": "address"
        },
        {
          "indexed": true,
          "internalType": "address",
          "name": "approved",
          "type": "address"
        },
        {
          "indexed": true,
          "internalType": "uint256",
          "name": "tokenId",
          "type": "uint256"
        }
      ],
      "name": "Approval",
      "type": "event"
    },
    {
      "anonymous": false,
      "inputs": [
        {
          "indexed": true,
          "internalType": "address",
          "name": "owner",
          "type": "address"
        },
        {
          "indexed": true,
          "internalType": "address",
          "name": "operator",
          "type": "address"
        },
        {
          "indexed": false,
          "internalType": "bool",
          "name": "approved",
          "type": "bool"
        }
      ],
      "name": "ApprovalForAll",
      "type": "event"
    },
    {
      "anonymous": false,
      "inputs": [
        {
          "indexed": false,
          "internalType": "address",
          "name": "from",
          "type": "address"
        },
        {
          "indexed": false,
          "internalType": "uint256",
          "name": "tokenId",
          "type": "uint256"
        },
        {
          "indexed": false,
          "internalType": "uint256",
          "name": "refundAmount",
          "type": "uint256"
        }
      ],
      "name": "Recycle",
      "type": "event"
    },
    {
      "anonymous": false,
      "inputs": [
        {
          "indexed": true,
          "internalType": "bytes32",
          "name": "role",
          "type": "bytes32"
        },
        {
          "indexed": true,
          "internalType": "bytes32",
          "name": "previousAdminRole",
          "type": "bytes32"
        },
        {
          "indexed": true,
          "internalType": "bytes32",
          "name": "newAdminRole",
          "type": "bytes32"
        }
      ],
      "name": "RoleAdminChanged",
      "type": "event"
    },
    {
      "anonymous": false,
      "inputs": [
        {
          "indexed": true,
          "internalType": "bytes32",
          "name": "role",
          "type": "bytes32"
        },
        {
          "indexed": true,
          "internalType": "address",
          "name": "account",
          "type": "address"
        },
        {
          "indexed": true,
          "internalType": "address",
          "name": "sender",
          "type": "address"
        }
      ],
      "name": "RoleGranted",
      "type": "event"
    },
    {
      "anonymous": false,
      "inputs": [
        {
          "indexed": true,
          "internalType": "bytes32",
          "name": "role",
          "type": "bytes32"
        },
        {
          "indexed": true,
          "internalType": "address",
          "name": "account",
          "type": "address"
        },
        {
          "indexed": true,
          "internalType": "address",
          "name": "sender",
          "type": "address"
        }
      ],
      "name": "RoleRevoked",
      "type": "event"
    },
    {
      "anonymous": false,
      "inputs": [
        {
          "indexed": true,
          "internalType": "address",
          "name": "from",
          "type": "address"
        },
        {
          "indexed": true,
          "internalType": "address",
          "name": "to",
          "type": "address"
        },
        {
          "indexed": true,
          "internalType": "uint256",
          "name": "tokenId",
          "type": "uint256"
        }
      ],
      "name": "Transfer",
      "type": "event"
    },
    {
      "inputs": [],
      "name": "DEFAULT_ADMIN_ROLE",
      "outputs": [
        {
          "internalType": "bytes32",
          "name": "",
          "type": "bytes32"
        }
      ],
      "stateMutability": "view",
      "type": "function"
    },
    {
      "inputs": [],
      "name": "MINTER_ROLE",
      "outputs": [
        {
          "internalType": "bytes32",
          "name": "",
          "type": "bytes32"
        }
      ],
      "stateMutability": "view",
      "type": "function"
    },
    {
      "inputs": [
        {
          "internalType": "address",
          "name": "to",
          "type": "address"
        },
        {
          "internalType": "uint256",
          "name": "tokenId",
          "type": "uint256"
        }
      ],
      "name": "approve",
      "outputs": [],
      "stateMutability": "nonpayable",
      "type": "function"
    },
    {
      "inputs": [
        {
          "internalType": "address",
          "name": "owner",
          "type": "address"
        }
      ],
      "name": "balanceOf",
      "outputs": [
        {
          "internalType": "uint256",
          "name": "",
          "type": "uint256"
        }
      ],
      "stateMutability": "view",
      "type": "function"
    },
    {
      "inputs": [
        {
          "internalType": "uint256",
          "name": "tokenId",
          "type": "uint256"
        }
      ],
      "name": "burn",
      "outputs": [],
      "stateMutability": "nonpayable",
      "type": "function"
    },
    {
      "inputs": [
        {
          "internalType": "uint256",
          "name": "tokenId",
          "type": "uint256"
        }
      ],
      "name": "getApproved",
      "outputs": [
        {
          "internalType": "address",
          "name": "",
          "type": "address"
        }
      ],
      "stateMutability": "view",
      "type": "function"
    },
    {
      "inputs": [
        {
          "internalType": "bytes32",
          "name": "role",
          "type": "bytes32"
        }
      ],
      "name": "getRoleAdmin",
      "outputs": [
        {
          "internalType": "bytes32",
          "name": "",
          "type": "bytes32"
        }
      ],
      "stateMutability": "view",
      "type": "function"
    },
    {
      "inputs": [
        {
          "internalType": "bytes32",
          "name": "role",
          "type": "bytes32"
        },
        {
          "internalType": "address",
          "name": "account",
          "type": "address"
        }
      ],
      "name": "grantRole",
      "outputs": [],
      "stateMutability": "nonpayable",
      "type": "function"
    },
    {
      "inputs": [
        {
          "internalType": "bytes32",
          "name": "role",
          "type": "bytes32"
        },
        {
          "internalType": "address",
          "name": "account",
          "type": "address"
        }
      ],
      "name": "hasRole",
      "outputs": [
        {
          "internalType": "bool",
          "name": "",
          "type": "bool"
        }
      ],
      "stateMutability": "view",
      "type": "function"
    },
    {
      "inputs": [
        {
          "internalType": "address",
          "name": "owner",
          "type": "address"
        },
        {
          "internalType": "address",
          "name": "operator",
          "type": "address"
        }
      ],
      "name": "isApprovedForAll",
      "outputs": [
        {
          "internalType": "bool",
          "name": "",
          "type": "bool"
        }
      ],
      "stateMutability": "view",
      "type": "function"
    },
    {
      "inputs": [
        {
          "internalType": "address",
          "name": "to",
          "type": "address"
        }
      ],
      "name": "mint",
      "outputs": [],
      "stateMutability": "payable",
      "type": "function"
    },
    {
      "inputs": [],
      "name": "name",
      "outputs": [
        {
          "internalType": "string",
          "name": "",
          "type": "string"
        }
      ],
      "stateMutability": "view",
      "type": "function"
    },
    {
      "inputs": [
        {
          "internalType": "uint256",
          "name": "tokenId",
          "type": "uint256"
        }
      ],
      "name": "ownerOf",
      "outputs": [
        {
          "internalType": "address",
          "name": "",
          "type": "address"
        }
      ],
      "stateMutability": "view",
      "type": "function"
    },
    {
      "inputs": [
        {
          "internalType": "uint256",
          "name": "tokenId",
          "type": "uint256"
        }
      ],
      "name": "recycle",
      "outputs": [],
      "stateMutability": "nonpayable",
      "type": "function"
    },
    {
      "inputs": [],
      "name": "refundAmount",
      "outputs": [
        {
          "internalType": "uint256",
          "name": "",
          "type": "uint256"
        }
      ],
      "stateMutability": "view",
      "type": "function"
    },
    {
      "inputs": [
        {
          "internalType": "bytes32",
          "name": "role",
          "type": "bytes32"
        },
        {
          "internalType": "address",
          "name": "account",
          "type": "address"
        }
      ],
      "name": "renounceRole",
      "outputs": [],
      "stateMutability": "nonpayable",
      "type": "function"
    },
    {
      "inputs": [
        {
          "internalType": "bytes32",
          "name": "role",
          "type": "bytes32"
        },
        {
          "internalType": "address",
          "name": "account",
          "type": "address"
        }
      ],
      "name": "revokeRole",
      "outputs": [],
      "stateMutability": "nonpayable",
      "type": "function"
    },
    {
      "inputs": [
        {
          "internalType": "address",
          "name": "from",
          "type": "address"
        },
        {
          "internalType": "address",
          "name": "to",
          "type": "address"
        },
        {
          "internalType": "uint256",
          "name": "tokenId",
          "type": "uint256"
        }
      ],
      "name": "safeTransferFrom",
      "outputs": [],
      "stateMutability": "nonpayable",
      "type": "function"
    },
    {
      "inputs": [
        {
          "internalType": "address",
          "name": "from",
          "type": "address"
        },
        {
          "internalType": "address",
          "name": "to",
          "type": "address"
        },
        {
          "internalType": "uint256",
          "name": "tokenId",
          "type": "uint256"
        },
        {
          "internalType": "bytes",
          "name": "_data",
          "type": "bytes"
        }
      ],
      "name": "safeTransferFrom",
      "outputs": [],
      "stateMutability": "nonpayable",
      "type": "function"
    },
    {
      "inputs": [],
      "name": "scrapToken",
      "outputs": [
        {
          "internalType": "contract ScrapToken",
          "name": "",
          "type": "address"
        }
      ],
      "stateMutability": "view",
      "type": "function"
    },
    {
      "inputs": [
        {
          "internalType": "address",
          "name": "operator",
          "type": "address"
        },
        {
          "internalType": "bool",
          "name": "approved",
          "type": "bool"
        }
      ],
      "name": "setApprovalForAll",
      "outputs": [],
      "stateMutability": "nonpayable",
      "type": "function"
    },
    {
      "inputs": [
        {
          "internalType": "string",
          "name": "baseURI",
          "type": "string"
        }
      ],
      "name": "setBaseURI",
      "outputs": [],
      "stateMutability": "nonpayable",
      "type": "function"
    },
    {
      "inputs": [
        {
          "internalType": "uint256",
          "name": "amount",
          "type": "uint256"
        }
      ],
      "name": "setRefundAmount",
      "outputs": [],
      "stateMutability": "nonpayable",
      "type": "function"
    },
    {
      "inputs": [
        {
          "internalType": "bytes4",
          "name": "interfaceId",
          "type": "bytes4"
        }
      ],
      "name": "supportsInterface",
      "outputs": [
        {
          "internalType": "bool",
          "name": "",
          "type": "bool"
        }
      ],
      "stateMutability": "view",
      "type": "function"
    },
    {
      "inputs": [],
      "name": "symbol",
      "outputs": [
        {
          "internalType": "string",
          "name": "",
          "type": "string"
        }
      ],
      "stateMutability": "view",
      "type": "function"
    },
    {
      "inputs": [
        {
          "internalType": "uint256",
          "name": "tokenId",
          "type": "uint256"
        }
      ],
      "name": "tokenURI",
      "outputs": [
        {
          "internalType": "string",
          "name": "",
          "type": "string"
        }
      ],
      "stateMutability": "view",
      "type": "function"
    },
    {
      "inputs": [
        {
          "internalType": "address",
          "name": "from",
          "type": "address"
        },
        {
          "internalType": "address",
          "name": "to",
          "type": "address"
        },
        {
          "internalType": "uint256",
          "name": "tokenId",
          "type": "uint256"
        }
      ],
      "name": "transferFrom",
      "outputs": [],
      "stateMutability": "nonpayable",
      "type": "function"
    },
    {
      "inputs": [],
      "name": "withdraw",
      "outputs": [],
      "stateMutability": "nonpayable",
      "type": "function"
    }
  ],
  "bytecode": "0x60806040526040518060400160405280601f81526020017f68747470733a2f2f7a69397873752e646574612e6465762f6173736574732f00815250600990805190602001906200005192919062000325565b50670de0b6b3a7640000600a553480156200006b57600080fd5b50604051620041a2380380620041a28339818101604052810190620000919190620003ec565b6040518060400160405280600981526020017f4d6574616c2054616700000000000000000000000000000000000000000000008152506040518060400160405280600281526020017f4d5400000000000000000000000000000000000000000000000000000000000081525081600090805190602001906200011592919062000325565b5080600190805190602001906200012e92919062000325565b505050620001466000801b33620001c060201b60201c565b620001787f9f2df0fed2c77648de5860a4cc508cd0818c85b8b8a1ab4ceeef8d981c8956a633620001c060201b60201c565b80600860006101000a81548173ffffffffffffffffffffffffffffffffffffffff021916908373ffffffffffffffffffffffffffffffffffffffff16021790555050620004df565b620001d28282620002b260201b60201c565b620002ae5760016006600084815260200190815260200160002060000160008373ffffffffffffffffffffffffffffffffffffffff1673ffffffffffffffffffffffffffffffffffffffff16815260200190815260200160002060006101000a81548160ff021916908315150217905550620002536200031d60201b60201c565b73ffffffffffffffffffffffffffffffffffffffff168173ffffffffffffffffffffffffffffffffffffffff16837f2f8788117e7eff1d82e926ec794901d17c78024a50270940304540a733656f0d60405160405180910390a45b5050565b60006006600084815260200190815260200160002060000160008373ffffffffffffffffffffffffffffffffffffffff1673ffffffffffffffffffffffffffffffffffffffff16815260200190815260200160002060009054906101000a900460ff16905092915050565b600033905090565b828054620003339062000460565b90600052602060002090601f016020900481019282620003575760008555620003a3565b82601f106200037257805160ff1916838001178555620003a3565b82800160010185558215620003a3579182015b82811115620003a257825182559160200191906001019062000385565b5b509050620003b29190620003b6565b5090565b5b80821115620003d1576000816000905550600101620003b7565b5090565b600081519050620003e681620004c5565b92915050565b600060208284031215620003ff57600080fd5b60006200040f84828501620003d5565b91505092915050565b6000620004258262000440565b9050919050565b6000620004398262000418565b9050919050565b600073ffffffffffffffffffffffffffffffffffffffff82169050919050565b600060028204905060018216806200047957607f821691505b6020821081141562000490576200048f62000496565b5b50919050565b7f4e487b7100000000000000000000000000000000000000000000000000000000600052602260045260246000fd5b620004d0816200042c565b8114620004dc57600080fd5b50565b613cb380620004ef6000396000f3fe6080604052600436106101b75760003560e01c80636a627842116100ec578063b88d4fde1161008a578063d539139311610064578063d53913931461060b578063d547741f14610636578063dd1c35bc1461065f578063e985e9c514610688576101b7565b8063b88d4fde1461057c578063bc5efbdd146105a5578063c87b56dd146105ce576101b7565b806395d89b41116100c657806395d89b41146104d2578063a217fddf146104fd578063a22cb46514610528578063ad33513f14610551576101b7565b80636a6278421461043c57806370a082311461045857806391d1485414610495576101b7565b80632f2ff15d1161015957806342842e0e1161013357806342842e0e1461038457806342966c68146103ad57806355f804b3146103d65780636352211e146103ff576101b7565b80632f2ff15d1461031b57806336568abe146103445780633ccfd60b1461036d576101b7565b8063095ea7b311610195578063095ea7b31461026157806323b872dd1461028a578063248a9ca3146102b35780632aa148fd146102f0576101b7565b806301ffc9a7146101bc57806306fdde03146101f9578063081812fc14610224575b600080fd5b3480156101c857600080fd5b506101e360048036038101906101de91906129f8565b6106c5565b6040516101f09190612f83565b60405180910390f35b34801561020557600080fd5b5061020e6106d7565b60405161021b9190612fd4565b60405180910390f35b34801561023057600080fd5b5061024b60048036038101906102469190612a8b565b610769565b6040516102589190612ebc565b60405180910390f35b34801561026d57600080fd5b5061028860048036038101906102839190612957565b6107ee565b005b34801561029657600080fd5b506102b160048036038101906102ac9190612851565b610906565b005b3480156102bf57600080fd5b506102da60048036038101906102d59190612993565b610966565b6040516102e79190612f9e565b60405180910390f35b3480156102fc57600080fd5b50610305610986565b6040516103129190612fb9565b60405180910390f35b34801561032757600080fd5b50610342600480360381019061033d91906129bc565b6109ac565b005b34801561035057600080fd5b5061036b600480360381019061036691906129bc565b6109d5565b005b34801561037957600080fd5b50610382610a58565b005b34801561039057600080fd5b506103ab60048036038101906103a69190612851565b610ab7565b005b3480156103b957600080fd5b506103d460048036038101906103cf9190612a8b565b610ad7565b005b3480156103e257600080fd5b506103fd60048036038101906103f89190612a4a565b610b33565b005b34801561040b57600080fd5b5061042660048036038101906104219190612a8b565b610b63565b6040516104339190612ebc565b60405180910390f35b610456600480360381019061045191906127ec565b610c15565b005b34801561046457600080fd5b5061047f600480360381019061047a91906127ec565b610c85565b60405161048c9190613236565b60405180910390f35b3480156104a157600080fd5b506104bc60048036038101906104b791906129bc565b610d3d565b6040516104c99190612f83565b60405180910390f35b3480156104de57600080fd5b506104e7610da8565b6040516104f49190612fd4565b60405180910390f35b34801561050957600080fd5b50610512610e3a565b60405161051f9190612f9e565b60405180910390f35b34801561053457600080fd5b5061054f600480360381019061054a919061291b565b610e41565b005b34801561055d57600080fd5b50610566610e57565b6040516105739190613236565b60405180910390f35b34801561058857600080fd5b506105a3600480360381019061059e91906128a0565b610e5d565b005b3480156105b157600080fd5b506105cc60048036038101906105c79190612a8b565b610ebf565b005b3480156105da57600080fd5b506105f560048036038101906105f09190612a8b565b610edf565b6040516106029190612fd4565b60405180910390f35b34801561061757600080fd5b50610620610f86565b60405161062d9190612f9e565b60405180910390f35b34801561064257600080fd5b5061065d600480360381019061065891906129bc565b610faa565b005b34801561066b57600080fd5b5061068660048036038101906106819190612a8b565b610fd3565b005b34801561069457600080fd5b506106af60048036038101906106aa9190612815565b6110ad565b6040516106bc9190612f83565b60405180910390f35b60006106d082611141565b9050919050565b6060600080546106e69061353e565b80601f01602080910402602001604051908101604052809291908181526020018280546107129061353e565b801561075f5780601f106107345761010080835404028352916020019161075f565b820191906000526020600020905b81548152906001019060200180831161074257829003601f168201915b5050505050905090565b6000610774826111bb565b6107b3576040517f08c379a00000000000000000000000000000000000000000000000000000000081526004016107aa90613136565b60405180910390fd5b6004600083815260200190815260200160002060009054906101000a900473ffffffffffffffffffffffffffffffffffffffff169050919050565b60006107f982610b63565b90508073ffffffffffffffffffffffffffffffffffffffff168373ffffffffffffffffffffffffffffffffffffffff16141561086a576040517f08c379a0000000000000000000000000000000000000000000000000000000008152600401610861906131b6565b60405180910390fd5b8073ffffffffffffffffffffffffffffffffffffffff16610889611227565b73ffffffffffffffffffffffffffffffffffffffff1614806108b857506108b7816108b2611227565b6110ad565b5b6108f7576040517f08c379a00000000000000000000000000000000000000000000000000000000081526004016108ee906130b6565b60405180910390fd5b610901838361122f565b505050565b610917610911611227565b826112e8565b610956576040517f08c379a000000000000000000000000000000000000000000000000000000000815260040161094d906131d6565b60405180910390fd5b6109618383836113c6565b505050565b600060066000838152602001908152602001600020600101549050919050565b600860009054906101000a900473ffffffffffffffffffffffffffffffffffffffff1681565b6109b582610966565b6109c6816109c1611227565b611622565b6109d083836116bf565b505050565b6109dd611227565b73ffffffffffffffffffffffffffffffffffffffff168173ffffffffffffffffffffffffffffffffffffffff1614610a4a576040517f08c379a0000000000000000000000000000000000000000000000000000000008152600401610a4190613216565b60405180910390fd5b610a5482826117a0565b5050565b6000801b610a6d81610a68611227565b611622565b3373ffffffffffffffffffffffffffffffffffffffff166108fc479081150290604051600060405180830381858888f19350505050158015610ab3573d6000803e3d6000fd5b5050565b610ad283838360405180602001604052806000815250610e5d565b505050565b610ae8610ae2611227565b826112e8565b610b27576040517f08c379a0000000000000000000000000000000000000000000000000000000008152600401610b1e906131f6565b60405180910390fd5b610b3081611882565b50565b6000801b610b4881610b43611227565b611622565b8160099080519060200190610b5e9291906125fb565b505050565b6000806002600084815260200190815260200160002060009054906101000a900473ffffffffffffffffffffffffffffffffffffffff169050600073ffffffffffffffffffffffffffffffffffffffff168173ffffffffffffffffffffffffffffffffffffffff161415610c0c576040517f08c379a0000000000000000000000000000000000000000000000000000000008152600401610c03906130f6565b60405180910390fd5b80915050919050565b6611c37937e08000341015610c5f576040517f08c379a0000000000000000000000000000000000000000000000000000000008152600401610c5690613156565b60405180910390fd5b6000610c6b6007611993565b9050610c7760076119a1565b610c8182826119b7565b5050565b60008073ffffffffffffffffffffffffffffffffffffffff168273ffffffffffffffffffffffffffffffffffffffff161415610cf6576040517f08c379a0000000000000000000000000000000000000000000000000000000008152600401610ced906130d6565b60405180910390fd5b600360008373ffffffffffffffffffffffffffffffffffffffff1673ffffffffffffffffffffffffffffffffffffffff168152602001908152602001600020549050919050565b60006006600084815260200190815260200160002060000160008373ffffffffffffffffffffffffffffffffffffffff1673ffffffffffffffffffffffffffffffffffffffff16815260200190815260200160002060009054906101000a900460ff16905092915050565b606060018054610db79061353e565b80601f0160208091040260200160405190810160405280929190818152602001828054610de39061353e565b8015610e305780601f10610e0557610100808354040283529160200191610e30565b820191906000526020600020905b815481529060010190602001808311610e1357829003601f168201915b5050505050905090565b6000801b81565b610e53610e4c611227565b83836119d5565b5050565b600a5481565b610e6e610e68611227565b836112e8565b610ead576040517f08c379a0000000000000000000000000000000000000000000000000000000008152600401610ea4906131d6565b60405180910390fd5b610eb984848484611b42565b50505050565b6000801b610ed481610ecf611227565b611622565b81600a819055505050565b6060610eea826111bb565b610f29576040517f08c379a0000000000000000000000000000000000000000000000000000000008152600401610f2090613196565b60405180910390fd5b6000610f33611b9e565b90506000815111610f535760405180602001604052806000815250610f7e565b80610f5d84611c30565b604051602001610f6e929190612e5e565b6040516020818303038152906040525b915050919050565b7f9f2df0fed2c77648de5860a4cc508cd0818c85b8b8a1ab4ceeef8d981c8956a681565b610fb382610966565b610fc481610fbf611227565b611622565b610fce83836117a0565b505050565b610fdc81611882565b600860009054906101000a900473ffffffffffffffffffffffffffffffffffffffff1673ffffffffffffffffffffffffffffffffffffffff166340c10f1933600a546040518363ffffffff1660e01b815260040161103b929190612f23565b600060405180830381600087803b15801561105557600080fd5b505af1158015611069573d6000803e3d6000fd5b505050507f3f8efdee48b9c051c379ca210af5acf4c9ecbe6fce33bf54b6a5c4f7d6a2ee353382600a546040516110a293929190612f4c565b60405180910390a150565b6000600560008473ffffffffffffffffffffffffffffffffffffffff1673ffffffffffffffffffffffffffffffffffffffff16815260200190815260200160002060008373ffffffffffffffffffffffffffffffffffffffff1673ffffffffffffffffffffffffffffffffffffffff16815260200190815260200160002060009054906101000a900460ff16905092915050565b60007f7965db0b000000000000000000000000000000000000000000000000000000007bffffffffffffffffffffffffffffffffffffffffffffffffffffffff1916827bffffffffffffffffffffffffffffffffffffffffffffffffffffffff191614806111b457506111b382611ddd565b5b9050919050565b60008073ffffffffffffffffffffffffffffffffffffffff166002600084815260200190815260200160002060009054906101000a900473ffffffffffffffffffffffffffffffffffffffff1673ffffffffffffffffffffffffffffffffffffffff1614159050919050565b600033905090565b816004600083815260200190815260200160002060006101000a81548173ffffffffffffffffffffffffffffffffffffffff021916908373ffffffffffffffffffffffffffffffffffffffff160217905550808273ffffffffffffffffffffffffffffffffffffffff166112a283610b63565b73ffffffffffffffffffffffffffffffffffffffff167f8c5be1e5ebec7d5bd14f71427d1e84f3dd0314c0f7b2291e5b200ac8c7c3b92560405160405180910390a45050565b60006112f3826111bb565b611332576040517f08c379a000000000000000000000000000000000000000000000000000000000815260040161132990613096565b60405180910390fd5b600061133d83610b63565b90508073ffffffffffffffffffffffffffffffffffffffff168473ffffffffffffffffffffffffffffffffffffffff1614806113ac57508373ffffffffffffffffffffffffffffffffffffffff1661139484610769565b73ffffffffffffffffffffffffffffffffffffffff16145b806113bd57506113bc81856110ad565b5b91505092915050565b8273ffffffffffffffffffffffffffffffffffffffff166113e682610b63565b73ffffffffffffffffffffffffffffffffffffffff161461143c576040517f08c379a000000000000000000000000000000000000000000000000000000000815260040161143390613176565b60405180910390fd5b600073ffffffffffffffffffffffffffffffffffffffff168273ffffffffffffffffffffffffffffffffffffffff1614156114ac576040517f08c379a00000000000000000000000000000000000000000000000000000000081526004016114a390613056565b60405180910390fd5b6114b7838383611ebf565b6114c260008261122f565b6001600360008573ffffffffffffffffffffffffffffffffffffffff1673ffffffffffffffffffffffffffffffffffffffff168152602001908152602001600020600082825461151291906133fc565b925050819055506001600360008473ffffffffffffffffffffffffffffffffffffffff1673ffffffffffffffffffffffffffffffffffffffff1681526020019081526020016000206000828254611569919061331b565b92505081905550816002600083815260200190815260200160002060006101000a81548173ffffffffffffffffffffffffffffffffffffffff021916908373ffffffffffffffffffffffffffffffffffffffff160217905550808273ffffffffffffffffffffffffffffffffffffffff168473ffffffffffffffffffffffffffffffffffffffff167fddf252ad1be2c89b69c2b068fc378daa952ba7f163c4a11628f55a4df523b3ef60405160405180910390a4505050565b61162c8282610d3d565b6116bb576116518173ffffffffffffffffffffffffffffffffffffffff166014611ec4565b61165f8360001c6020611ec4565b604051602001611670929190612e82565b6040516020818303038152906040526040517f08c379a00000000000000000000000000000000000000000000000000000000081526004016116b29190612fd4565b60405180910390fd5b5050565b6116c98282610d3d565b61179c5760016006600084815260200190815260200160002060000160008373ffffffffffffffffffffffffffffffffffffffff1673ffffffffffffffffffffffffffffffffffffffff16815260200190815260200160002060006101000a81548160ff021916908315150217905550611741611227565b73ffffffffffffffffffffffffffffffffffffffff168173ffffffffffffffffffffffffffffffffffffffff16837f2f8788117e7eff1d82e926ec794901d17c78024a50270940304540a733656f0d60405160405180910390a45b5050565b6117aa8282610d3d565b1561187e5760006006600084815260200190815260200160002060000160008373ffffffffffffffffffffffffffffffffffffffff1673ffffffffffffffffffffffffffffffffffffffff16815260200190815260200160002060006101000a81548160ff021916908315150217905550611823611227565b73ffffffffffffffffffffffffffffffffffffffff168173ffffffffffffffffffffffffffffffffffffffff16837ff6391f5c32d9c69d2a47ea670b442974b53935d1edc7fd64eb21e047a839171b60405160405180910390a45b5050565b600061188d82610b63565b905061189b81600084611ebf565b6118a660008361122f565b6001600360008373ffffffffffffffffffffffffffffffffffffffff1673ffffffffffffffffffffffffffffffffffffffff16815260200190815260200160002060008282546118f691906133fc565b925050819055506002600083815260200190815260200160002060006101000a81549073ffffffffffffffffffffffffffffffffffffffff021916905581600073ffffffffffffffffffffffffffffffffffffffff168273ffffffffffffffffffffffffffffffffffffffff167fddf252ad1be2c89b69c2b068fc378daa952ba7f163c4a11628f55a4df523b3ef60405160405180910390a45050565b600081600001549050919050565b6001816000016000828254019250508190555050565b6119d18282604051806020016040528060008152506121be565b5050565b8173ffffffffffffffffffffffffffffffffffffffff168373ffffffffffffffffffffffffffffffffffffffff161415611a44576040517f08c379a0000000000000000000000000000000000000000000000000000000008152600401611a3b90613076565b60405180910390fd5b80600560008573ffffffffffffffffffffffffffffffffffffffff1673ffffffffffffffffffffffffffffffffffffffff16815260200190815260200160002060008473ffffffffffffffffffffffffffffffffffffffff1673ffffffffffffffffffffffffffffffffffffffff16815260200190815260200160002060006101000a81548160ff0219169083151502179055508173ffffffffffffffffffffffffffffffffffffffff168373ffffffffffffffffffffffffffffffffffffffff167f17307eab39ab6107e8899845ad3d59bd9653f200f220920489ca2b5937696c3183604051611b359190612f83565b60405180910390a3505050565b611b4d8484846113c6565b611b5984848484612219565b611b98576040517f08c379a0000000000000000000000000000000000000000000000000000000008152600401611b8f90613016565b60405180910390fd5b50505050565b606060098054611bad9061353e565b80601f0160208091040260200160405190810160405280929190818152602001828054611bd99061353e565b8015611c265780601f10611bfb57610100808354040283529160200191611c26565b820191906000526020600020905b815481529060010190602001808311611c0957829003601f168201915b5050505050905090565b60606000821415611c78576040518060400160405280600181526020017f30000000000000000000000000000000000000000000000000000000000000008152509050611dd8565b600082905060005b60008214611caa578080611c93906135a1565b915050600a82611ca39190613371565b9150611c80565b60008167ffffffffffffffff811115611cec577f4e487b7100000000000000000000000000000000000000000000000000000000600052604160045260246000fd5b6040519080825280601f01601f191660200182016040528015611d1e5781602001600182028036833780820191505090505b5090505b60008514611dd157600182611d3791906133fc565b9150600a85611d4691906135ea565b6030611d52919061331b565b60f81b818381518110611d8e577f4e487b7100000000000000000000000000000000000000000000000000000000600052603260045260246000fd5b60200101907effffffffffffffffffffffffffffffffffffffffffffffffffffffffffffff1916908160001a905350600a85611dca9190613371565b9450611d22565b8093505050505b919050565b60007f80ac58cd000000000000000000000000000000000000000000000000000000007bffffffffffffffffffffffffffffffffffffffffffffffffffffffff1916827bffffffffffffffffffffffffffffffffffffffffffffffffffffffff19161480611ea857507f5b5e139f000000000000000000000000000000000000000000000000000000007bffffffffffffffffffffffffffffffffffffffffffffffffffffffff1916827bffffffffffffffffffffffffffffffffffffffffffffffffffffffff1916145b80611eb85750611eb7826123b0565b5b9050919050565b505050565b606060006002836002611ed791906133a2565b611ee1919061331b565b67ffffffffffffffff811115611f20577f4e487b7100000000000000000000000000000000000000000000000000000000600052604160045260246000fd5b6040519080825280601f01601f191660200182016040528015611f525781602001600182028036833780820191505090505b5090507f300000000000000000000000000000000000000000000000000000000000000081600081518110611fb0577f4e487b7100000000000000000000000000000000000000000000000000000000600052603260045260246000fd5b60200101907effffffffffffffffffffffffffffffffffffffffffffffffffffffffffffff1916908160001a9053507f78000000000000000000000000000000000000000000000000000000000000008160018151811061203a577f4e487b7100000000000000000000000000000000000000000000000000000000600052603260045260246000fd5b60200101907effffffffffffffffffffffffffffffffffffffffffffffffffffffffffffff1916908160001a9053506000600184600261207a91906133a2565b612084919061331b565b90505b6001811115612170577f3031323334353637383961626364656600000000000000000000000000000000600f8616601081106120ec577f4e487b7100000000000000000000000000000000000000000000000000000000600052603260045260246000fd5b1a60f81b828281518110612129577f4e487b7100000000000000000000000000000000000000000000000000000000600052603260045260246000fd5b60200101907effffffffffffffffffffffffffffffffffffffffffffffffffffffffffffff1916908160001a905350600485901c94508061216990613514565b9050612087565b50600084146121b4576040517f08c379a00000000000000000000000000000000000000000000000000000000081526004016121ab90612ff6565b60405180910390fd5b8091505092915050565b6121c8838361241a565b6121d56000848484612219565b612214576040517f08c379a000000000000000000000000000000000000000000000000000000000815260040161220b90613016565b60405180910390fd5b505050565b600061223a8473ffffffffffffffffffffffffffffffffffffffff166125e8565b156123a3578373ffffffffffffffffffffffffffffffffffffffff1663150b7a02612263611227565b8786866040518563ffffffff1660e01b81526004016122859493929190612ed7565b602060405180830381600087803b15801561229f57600080fd5b505af19250505080156122d057506040513d601f19601f820116820180604052508101906122cd9190612a21565b60015b612353573d8060008114612300576040519150601f19603f3d011682016040523d82523d6000602084013e612305565b606091505b5060008151141561234b576040517f08c379a000000000000000000000000000000000000000000000000000000000815260040161234290613016565b60405180910390fd5b805181602001fd5b63150b7a0260e01b7bffffffffffffffffffffffffffffffffffffffffffffffffffffffff1916817bffffffffffffffffffffffffffffffffffffffffffffffffffffffff1916149150506123a8565b600190505b949350505050565b60007f01ffc9a7000000000000000000000000000000000000000000000000000000007bffffffffffffffffffffffffffffffffffffffffffffffffffffffff1916827bffffffffffffffffffffffffffffffffffffffffffffffffffffffff1916149050919050565b600073ffffffffffffffffffffffffffffffffffffffff168273ffffffffffffffffffffffffffffffffffffffff16141561248a576040517f08c379a000000000000000000000000000000000000000000000000000000000815260040161248190613116565b60405180910390fd5b612493816111bb565b156124d3576040517f08c379a00000000000000000000000000000000000000000000000000000000081526004016124ca90613036565b60405180910390fd5b6124df60008383611ebf565b6001600360008473ffffffffffffffffffffffffffffffffffffffff1673ffffffffffffffffffffffffffffffffffffffff168152602001908152602001600020600082825461252f919061331b565b92505081905550816002600083815260200190815260200160002060006101000a81548173ffffffffffffffffffffffffffffffffffffffff021916908373ffffffffffffffffffffffffffffffffffffffff160217905550808273ffffffffffffffffffffffffffffffffffffffff16600073ffffffffffffffffffffffffffffffffffffffff167fddf252ad1be2c89b69c2b068fc378daa952ba7f163c4a11628f55a4df523b3ef60405160405180910390a45050565b600080823b905060008111915050919050565b8280546126079061353e565b90600052602060002090601f0160209004810192826126295760008555612670565b82601f1061264257805160ff1916838001178555612670565b82800160010185558215612670579182015b8281111561266f578251825591602001919060010190612654565b5b50905061267d9190612681565b5090565b5b8082111561269a576000816000905550600101612682565b5090565b60006126b16126ac84613276565b613251565b9050828152602081018484840111156126c957600080fd5b6126d48482856134d2565b509392505050565b60006126ef6126ea846132a7565b613251565b90508281526020810184848401111561270757600080fd5b6127128482856134d2565b509392505050565b60008135905061272981613c0a565b92915050565b60008135905061273e81613c21565b92915050565b60008135905061275381613c38565b92915050565b60008135905061276881613c4f565b92915050565b60008151905061277d81613c4f565b92915050565b600082601f83011261279457600080fd5b81356127a484826020860161269e565b91505092915050565b600082601f8301126127be57600080fd5b81356127ce8482602086016126dc565b91505092915050565b6000813590506127e681613c66565b92915050565b6000602082840312156127fe57600080fd5b600061280c8482850161271a565b91505092915050565b6000806040838503121561282857600080fd5b60006128368582860161271a565b92505060206128478582860161271a565b9150509250929050565b60008060006060848603121561286657600080fd5b60006128748682870161271a565b93505060206128858682870161271a565b9250506040612896868287016127d7565b9150509250925092565b600080600080608085870312156128b657600080fd5b60006128c48782880161271a565b94505060206128d58782880161271a565b93505060406128e6878288016127d7565b925050606085013567ffffffffffffffff81111561290357600080fd5b61290f87828801612783565b91505092959194509250565b6000806040838503121561292e57600080fd5b600061293c8582860161271a565b925050602061294d8582860161272f565b9150509250929050565b6000806040838503121561296a57600080fd5b60006129788582860161271a565b9250506020612989858286016127d7565b9150509250929050565b6000602082840312156129a557600080fd5b60006129b384828501612744565b91505092915050565b600080604083850312156129cf57600080fd5b60006129dd85828601612744565b92505060206129ee8582860161271a565b9150509250929050565b600060208284031215612a0a57600080fd5b6000612a1884828501612759565b91505092915050565b600060208284031215612a3357600080fd5b6000612a418482850161276e565b91505092915050565b600060208284031215612a5c57600080fd5b600082013567ffffffffffffffff811115612a7657600080fd5b612a82848285016127ad565b91505092915050565b600060208284031215612a9d57600080fd5b6000612aab848285016127d7565b91505092915050565b612abd81613430565b82525050565b612acc81613442565b82525050565b612adb8161344e565b82525050565b6000612aec826132d8565b612af681856132ee565b9350612b068185602086016134e1565b612b0f816136d7565b840191505092915050565b612b23816134ae565b82525050565b6000612b34826132e3565b612b3e81856132ff565b9350612b4e8185602086016134e1565b612b57816136d7565b840191505092915050565b6000612b6d826132e3565b612b778185613310565b9350612b878185602086016134e1565b80840191505092915050565b6000612ba06020836132ff565b9150612bab826136e8565b602082019050919050565b6000612bc36032836132ff565b9150612bce82613711565b604082019050919050565b6000612be6601c836132ff565b9150612bf182613760565b602082019050919050565b6000612c096024836132ff565b9150612c1482613789565b604082019050919050565b6000612c2c6019836132ff565b9150612c37826137d8565b602082019050919050565b6000612c4f602c836132ff565b9150612c5a82613801565b604082019050919050565b6000612c726038836132ff565b9150612c7d82613850565b604082019050919050565b6000612c95602a836132ff565b9150612ca08261389f565b604082019050919050565b6000612cb86029836132ff565b9150612cc3826138ee565b604082019050919050565b6000612cdb6020836132ff565b9150612ce68261393d565b602082019050919050565b6000612cfe602c836132ff565b9150612d0982613966565b604082019050919050565b6000612d21601f836132ff565b9150612d2c826139b5565b602082019050919050565b6000612d446029836132ff565b9150612d4f826139de565b604082019050919050565b6000612d67602f836132ff565b9150612d7282613a2d565b604082019050919050565b6000612d8a6021836132ff565b9150612d9582613a7c565b604082019050919050565b6000612dad6031836132ff565b9150612db882613acb565b604082019050919050565b6000612dd0601783613310565b9150612ddb82613b1a565b601782019050919050565b6000612df36030836132ff565b9150612dfe82613b43565b604082019050919050565b6000612e16601183613310565b9150612e2182613b92565b601182019050919050565b6000612e39602f836132ff565b9150612e4482613bbb565b604082019050919050565b612e58816134a4565b82525050565b6000612e6a8285612b62565b9150612e768284612b62565b91508190509392505050565b6000612e8d82612dc3565b9150612e998285612b62565b9150612ea482612e09565b9150612eb08284612b62565b91508190509392505050565b6000602082019050612ed16000830184612ab4565b92915050565b6000608082019050612eec6000830187612ab4565b612ef96020830186612ab4565b612f066040830185612e4f565b8181036060830152612f188184612ae1565b905095945050505050565b6000604082019050612f386000830185612ab4565b612f456020830184612e4f565b9392505050565b6000606082019050612f616000830186612ab4565b612f6e6020830185612e4f565b612f7b6040830184612e4f565b949350505050565b6000602082019050612f986000830184612ac3565b92915050565b6000602082019050612fb36000830184612ad2565b92915050565b6000602082019050612fce6000830184612b1a565b92915050565b60006020820190508181036000830152612fee8184612b29565b905092915050565b6000602082019050818103600083015261300f81612b93565b9050919050565b6000602082019050818103600083015261302f81612bb6565b9050919050565b6000602082019050818103600083015261304f81612bd9565b9050919050565b6000602082019050818103600083015261306f81612bfc565b9050919050565b6000602082019050818103600083015261308f81612c1f565b9050919050565b600060208201905081810360008301526130af81612c42565b9050919050565b600060208201905081810360008301526130cf81612c65565b9050919050565b600060208201905081810360008301526130ef81612c88565b9050919050565b6000602082019050818103600083015261310f81612cab565b9050919050565b6000602082019050818103600083015261312f81612cce565b9050919050565b6000602082019050818103600083015261314f81612cf1565b9050919050565b6000602082019050818103600083015261316f81612d14565b9050919050565b6000602082019050818103600083015261318f81612d37565b9050919050565b600060208201905081810360008301526131af81612d5a565b9050919050565b600060208201905081810360008301526131cf81612d7d565b9050919050565b600060208201905081810360008301526131ef81612da0565b9050919050565b6000602082019050818103600083015261320f81612de6565b9050919050565b6000602082019050818103600083015261322f81612e2c565b9050919050565b600060208201905061324b6000830184612e4f565b92915050565b600061325b61326c565b90506132678282613570565b919050565b6000604051905090565b600067ffffffffffffffff821115613291576132906136a8565b5b61329a826136d7565b9050602081019050919050565b600067ffffffffffffffff8211156132c2576132c16136a8565b5b6132cb826136d7565b9050602081019050919050565b600081519050919050565b600081519050919050565b600082825260208201905092915050565b600082825260208201905092915050565b600081905092915050565b6000613326826134a4565b9150613331836134a4565b9250827fffffffffffffffffffffffffffffffffffffffffffffffffffffffffffffffff038211156133665761336561361b565b5b828201905092915050565b600061337c826134a4565b9150613387836134a4565b9250826133975761339661364a565b5b828204905092915050565b60006133ad826134a4565b91506133b8836134a4565b9250817fffffffffffffffffffffffffffffffffffffffffffffffffffffffffffffffff04831182151516156133f1576133f061361b565b5b828202905092915050565b6000613407826134a4565b9150613412836134a4565b9250828210156134255761342461361b565b5b828203905092915050565b600061343b82613484565b9050919050565b60008115159050919050565b6000819050919050565b60007fffffffff0000000000000000000000000000000000000000000000000000000082169050919050565b600073ffffffffffffffffffffffffffffffffffffffff82169050919050565b6000819050919050565b60006134b9826134c0565b9050919050565b60006134cb82613484565b9050919050565b82818337600083830152505050565b60005b838110156134ff5780820151818401526020810190506134e4565b8381111561350e576000848401525b50505050565b600061351f826134a4565b915060008214156135335761353261361b565b5b600182039050919050565b6000600282049050600182168061355657607f821691505b6020821081141561356a57613569613679565b5b50919050565b613579826136d7565b810181811067ffffffffffffffff82111715613598576135976136a8565b5b80604052505050565b60006135ac826134a4565b91507fffffffffffffffffffffffffffffffffffffffffffffffffffffffffffffffff8214156135df576135de61361b565b5b600182019050919050565b60006135f5826134a4565b9150613600836134a4565b9250826136105761360f61364a565b5b828206905092915050565b7f4e487b7100000000000000000000000000000000000000000000000000000000600052601160045260246000fd5b7f4e487b7100000000000000000000000000000000000000000000000000000000600052601260045260246000fd5b7f4e487b7100000000000000000000000000000000000000000000000000000000600052602260045260246000fd5b7f4e487b7100000000000000000000000000000000000000000000000000000000600052604160045260246000fd5b6000601f19601f8301169050919050565b7f537472696e67733a20686578206c656e67746820696e73756666696369656e74600082015250565b7f4552433732313a207472616e7366657220746f206e6f6e20455243373231526560008201527f63656976657220696d706c656d656e7465720000000000000000000000000000602082015250565b7f4552433732313a20746f6b656e20616c7265616479206d696e74656400000000600082015250565b7f4552433732313a207472616e7366657220746f20746865207a65726f2061646460008201527f7265737300000000000000000000000000000000000000000000000000000000602082015250565b7f4552433732313a20617070726f766520746f2063616c6c657200000000000000600082015250565b7f4552433732313a206f70657261746f7220717565727920666f72206e6f6e657860008201527f697374656e7420746f6b656e0000000000000000000000000000000000000000602082015250565b7f4552433732313a20617070726f76652063616c6c6572206973206e6f74206f7760008201527f6e6572206e6f7220617070726f76656420666f7220616c6c0000000000000000602082015250565b7f4552433732313a2062616c616e636520717565727920666f7220746865207a6560008201527f726f206164647265737300000000000000000000000000000000000000000000602082015250565b7f4552433732313a206f776e657220717565727920666f72206e6f6e657869737460008201527f656e7420746f6b656e0000000000000000000000000000000000000000000000602082015250565b7f4552433732313a206d696e7420746f20746865207a65726f2061646472657373600082015250565b7f4552433732313a20617070726f76656420717565727920666f72206e6f6e657860008201527f697374656e7420746f6b656e0000000000000000000000000000000000000000602082015250565b7f596f75206d75737420706179206174206c6561737420302c30303520424e4200600082015250565b7f4552433732313a207472616e73666572206f6620746f6b656e2074686174206960008201527f73206e6f74206f776e0000000000000000000000000000000000000000000000602082015250565b7f4552433732314d657461646174613a2055524920717565727920666f72206e6f60008201527f6e6578697374656e7420746f6b656e0000000000000000000000000000000000602082015250565b7f4552433732313a20617070726f76616c20746f2063757272656e74206f776e6560008201527f7200000000000000000000000000000000000000000000000000000000000000602082015250565b7f4552433732313a207472616e736665722063616c6c6572206973206e6f74206f60008201527f776e6572206e6f7220617070726f766564000000000000000000000000000000602082015250565b7f416363657373436f6e74726f6c3a206163636f756e7420000000000000000000600082015250565b7f4552433732314275726e61626c653a2063616c6c6572206973206e6f74206f7760008201527f6e6572206e6f7220617070726f76656400000000000000000000000000000000602082015250565b7f206973206d697373696e6720726f6c6520000000000000000000000000000000600082015250565b7f416363657373436f6e74726f6c3a2063616e206f6e6c792072656e6f756e636560008201527f20726f6c657320666f722073656c660000000000000000000000000000000000602082015250565b613c1381613430565b8114613c1e57600080fd5b50565b613c2a81613442565b8114613c3557600080fd5b50565b613c418161344e565b8114613c4c57600080fd5b50565b613c5881613458565b8114613c6357600080fd5b50565b613c6f816134a4565b8114613c7a57600080fd5b5056fea2646970667358221220a8a2ff062f6f4ec24d1e92e6c1a404acdb7f80875960d8c54d9dbdbf7700664364736f6c63430008040033",
  "linkReferences": {},
  "deployedLinkReferences": {}
}